{
    "contractName": "ZSC",
    "abi": [
        {
            "constant": false,
            "inputs": [
                {
                    "name": "y",
                    "type": "bytes32[2]"
                },
                {
                    "name": "bTransfer",
                    "type": "uint256"
                }
            ],
            "name": "fund",
            "outputs": [],
            "payable": false,
            "stateMutability": "nonpayable",
            "type": "function"
        },
        {
            "constant": true,
            "inputs": [],
            "name": "epochLength",
            "outputs": [
                {
                    "name": "",
                    "type": "uint256"
                }
            ],
            "payable": false,
            "stateMutability": "view",
            "type": "function"
        },
        {
            "constant": false,
            "inputs": [
                {
                    "name": "L",
                    "type": "bytes32[2][]"
                },
                {
                    "name": "R",
                    "type": "bytes32[2]"
                },
                {
                    "name": "y",
                    "type": "bytes32[2][]"
                },
                {
                    "name": "u",
                    "type": "bytes32[2]"
                },
                {
                    "name": "proof",
                    "type": "bytes"
                }
            ],
            "name": "transfer",
            "outputs": [],
            "payable": false,
            "stateMutability": "nonpayable",
            "type": "function"
        },
        {
            "constant": false,
            "inputs": [
                {
                    "name": "y",
                    "type": "bytes32[2]"
                },
                {
                    "name": "bTransfer",
                    "type": "uint256"
                },
                {
                    "name": "u",
                    "type": "bytes32[2]"
                },
                {
                    "name": "proof",
                    "type": "bytes"
                }
            ],
            "name": "burn",
            "outputs": [],
            "payable": false,
            "stateMutability": "nonpayable",
            "type": "function"
        },
        {
            "constant": true,
            "inputs": [
                {
                    "name": "y",
                    "type": "bytes32[2][]"
                },
                {
                    "name": "epoch",
                    "type": "uint256"
                }
            ],
            "name": "simulateAccounts",
            "outputs": [
                {
                    "name": "accounts",
                    "type": "bytes32[2][2][]"
                }
            ],
            "payable": false,
            "stateMutability": "view",
            "type": "function"
        },
        {
            "inputs": [
                {
                    "name": "_coin",
                    "type": "address"
                },
                {
                    "name": "_zether",
                    "type": "address"
                },
                {
                    "name": "_burn",
                    "type": "address"
                },
                {
                    "name": "_epochLength",
                    "type": "uint256"
                }
            ],
            "payable": false,
            "stateMutability": "nonpayable",
            "type": "constructor"
        },
        {
            "anonymous": false,
            "inputs": [
                {
                    "indexed": false,
                    "name": "parties",
                    "type": "bytes32[2][]"
                }
            ],
            "name": "TransferOccurred",
            "type": "event"
        }
    ],
    "bytecode": "60806040526000600455600060095534801561001a57600080fd5b50604051611fa4380380611fa48339818101604052608081101561003d57600080fd5b50805160208201516040830151606090930151600080546001600160a01b03199081166001600160a01b03958616178255600180548216948616949094179093556002805490931693909416929092179055600355611f029081906100a290396000f3fe608060405234801561001057600080fd5b50600436106100575760003560e01c80635464befb1461005c57806357d775f81461007f5780635ec7ccfd1461009957806373663b5f146102f75780637ea9712f146103fb575b600080fd5b61007d6004803603606081101561007257600080fd5b5060408101356104fe565b005b6100876107ac565b60408051918252519081900360200190f35b61007d600480360360e08110156100af57600080fd5b810190602081018135600160201b8111156100c957600080fd5b8201836020820111156100db57600080fd5b803590602001918460408302840111600160201b831117156100fc57600080fd5b9190808060200260200160405190810160405280939291908181526020016000905b8282101561015c576040805180820182529080840287019060029083908390808284376000920191909152505050815260019091019060200161011e565b505060408051808201825294979695818101959450925060029150839083908082843760009201919091525091949392602081019250359050600160201b8111156101a657600080fd5b8201836020820111156101b857600080fd5b803590602001918460408302840111600160201b831117156101d957600080fd5b9190808060200260200160405190810160405280939291908181526020016000905b8282101561023957604080518082018252908084028701906002908390839080828437600092019190915250505081526001909101906020016101fb565b505060408051808201825294979695818101959450925060029150839083908082843760009201919091525091949392602081019250359050600160201b81111561028357600080fd5b82018360208201111561029557600080fd5b803590602001918460018302840111600160201b831117156102b657600080fd5b91908080601f0160208091040260200160405190810160405280939291908181526020018383808284376000920191909152509295506107b2945050505050565b61007d600480360360c081101561030d57600080fd5b604080518082018252918301929181830191839060029083908390808284376000920191909152505060408051808201825292958435959094909360608201935091602090910190600290839083908082843760009201919091525091949392602081019250359050600160201b81111561038757600080fd5b82018360208201111561039957600080fd5b803590602001918460018302840111600160201b831117156103ba57600080fd5b91908080601f0160208091040260200160405190810160405280939291908181526020018383808284376000920191909152509295506110ec945050505050565b6104696004803603604081101561041157600080fd5b810190602081018135600160201b81111561042b57600080fd5b82018360208201111561043d57600080fd5b803590602001918460408302840111600160201b8311171561045e57600080fd5b9193509150356117fa565b60405180806020018281038252838181518152602001915080516000925b818410156104ed578284602002602001015160026000925b818410156104df5760208402830151604080838360005b838110156104ce5781810151838201526020016104b6565b50505050905001926001019261049f565b925050509260010192610487565b925050509250505060405180910390f35b60008260405160200180826002602002808284378083019250505091505060405160208183030381529060405280519060200120905061053d81611a42565b63ffffffff821115610596576040805162461bcd60e51b815260206004820152601c60248201527f4465706f73697420616d6f756e74206f7574206f662072616e67652e00000000604482015290519081900360640190fd5b63ffffffff600454830111156105dd5760405162461bcd60e51b8152600401808060200182810382526028815260200180611e4e6028913960400191505060405180910390fd5b6105e5611c85565b600082815260066020526040908190208151808301928390529160029082845b8154815260200190600101908083116106055750505050509050604051600182518252602083015160208301527f077da99d806abd13c9f15ece5398525119d11e11e9836b2ee7d23f6159ad87d460408301527f01485efa927f2ad41bff567eec88f32fb0a0f706588b4e41a8d587d008b7f8756060830152846080830152604080830160606040850160075afa1660408360808460065afa16806106a957600080fd5b505060008281526006602052604090206106c590826002611ca3565b5060008054604080516323b872dd60e01b81523360048201523060248201526044810187905290516001600160a01b03909216926323b872dd926064808401936020939083900390910190829087803b15801561072157600080fd5b505af1158015610735573d6000803e3d6000fd5b505050506040513d602081101561074b57600080fd5b505161079e576040805162461bcd60e51b815260206004820152601c60248201527f5472616e736665722066726f6d2073656e646572206661696c65642e00000000604482015290519081900360640190fd5b505060048054909101905550565b60035481565b82516040805182815260208084028201019091526060908280156107f057816020015b6107dd611c85565b8152602001906001900390816107d55790505b50905060608260405190808252806020026020018201604052801561082f57816020015b61081c611c85565b8152602001906001900390816108145790505b50905082885114610887576040805162461bcd60e51b815260206004820152601c60248201527f496e707574206172726179206c656e677468206d69736d617463682100000000604482015290519081900360640190fd5b600160005b8751811015610b095760008882815181106108a357fe5b60200260200101516040516020018082600260200280838360005b838110156108d65781810151838201526020016108be565b5050505090500191505060405160208183030381529060405280519060200120905061090181611a42565b610909611ce1565b60008281526006602052604080822081518083019092529091600290835b8282101561096d57604080518082019182905290600284810287019182845b81548152602001906001019080831161094657505050505081526020019060010190610927565b505050509050604051815151815260208251015160208201526020840260208e010151516040820152602080850260208f010151015160608201526040825160808360065afa851694506020820151518152602080830151015160208201528b51604082015260208c015160608201526040602083015160808360065afa6000848152600660205260409020951694610a099150826002611d0e565b5060008281526005602052604080822081518083019092529091600290835b82821015610a6e57604080518082019182905290600284810287019182845b815481526020019060010190808311610a4757505050505081526020019060010190610a28565b505050509050604051815151815260208251015160208201526020840260208e010151516040820152602080850260208f0101510151606082015260406020850260208901015160808360065afa851694506020820151518152602080830151015160208201528b51604082015260208c0151606082015260406020850260208801015160808360065afa949094169350505060010161088c565b5080600114610b495760405162461bcd60e51b815260040180806020018281038252602e815260200180611e20602e913960400191505060405180910390fd5b60008090506000876040516020018082600260200280838360005b83811015610b7c578181015183820152602001610b64565b5050505090500191505060405160208183030381529060405280519060200120905060008090505b600854811015610bde578160088281548110610bbc57fe5b90600052602060002001541415610bd65760019250610bde565b600101610ba4565b508115610c28576040805162461bcd60e51b81526020600482015260136024820152724e6f6e636520616c7265616479207365656e2160681b604482015290519081900360640190fd5b600160009054906101000a90046001600160a01b03166001600160a01b0316634e8ee0e26040518163ffffffff1660e01b815260040160206040518083038186803b158015610c7657600080fd5b505afa158015610c8a573d6000803e3d6000fd5b505050506040513d6020811015610ca057600080fd5b5051861115610d0f576001546040805163a00547ab60e01b81526004810189905290516001600160a01b039092169163a00547ab9160248082019260009290919082900301818387803b158015610cf657600080fd5b505af1158015610d0a573d6000803e3d6000fd5b505050505b600160009054906101000a90046001600160a01b03166001600160a01b0316631659e67d86868e8e8e6009548f8f6040518963ffffffff1660e01b81526004018080602001806020018060200189600260200280838360005b83811015610d80578181015183820152602001610d68565b505050509050018060200188815260200187600260200280838360005b83811015610db5578181015183820152602001610d9d565b505050509050018060200186810386528e8181518152602001915080516000925b81841015610e1857602080850284010151604080838360005b83811015610e07578181015183820152602001610def565b505050509050019260010192610dd6565b9250505086810385528d8181518152602001915080516000925b81841015610e7457602080850284010151604080838360005b83811015610e63578181015183820152602001610e4b565b505050509050019260010192610e32565b9250505086810384528c8181518152602001915080516000925b81841015610ed057602080850284010151604080838360005b83811015610ebf578181015183820152602001610ea7565b505050509050019260010192610e8e565b89810386528d5181528d51600094508e935091506020015b81841015610f2a57602080850284010151604080838360005b83811015610f19578181015183820152602001610f01565b505050509050019260010192610ee8565b89810385528a5181528a5160209182019450908b019250905080838360005b83811015610f61578181015183820152602001610f49565b50505050905090810190601f168015610f8e5780820380516001836020036101000a031916815260200191505b509d505050505050505050505050505060206040518083038186803b158015610fb657600080fd5b505afa158015610fca573d6000803e3d6000fd5b505050506040513d6020811015610fe057600080fd5b505161101d5760405162461bcd60e51b8152600401808060200182810382526023815260200180611e766023913960400191505060405180910390fd5b6008805460018101825560009182527ff3f7a9fe364faab93b216da50a3214154f22a0a2b415b23a84c8169e8b636ee3018290556040805160208082528c51908201528b517f4ef6ed22b1551aeadeb80e67bb3a38788491e81527cc70a85bff611e9e51e18a938d938392859184015b818410156110cf57602080850284010151604080838360005b838110156110be5781810151838201526020016110a6565b50505050905001926001019261108d565b925050509250505060405180910390a15050505050505050505050565b6000846040516020018082600260200280838360005b8381101561111a578181015183820152602001611102565b5050505090500191505060405160208183030381529060405280519060200120905061114581611a42565b63ffffffff84111561119e576040805162461bcd60e51b815260206004820152601d60248201527f5472616e7366657220616d6f756e74206f7574206f662072616e67652e000000604482015290519081900360640190fd5b6111a6611ce1565b60008281526006602052604080822081518083019092529091600290835b8282101561120a57604080518082019182905290600284810287019182845b8154815260200190600101908083116111e3575050505050815260200190600101906111c4565b5050505090506001604051825151815260208351015160208201527f077da99d806abd13c9f15ece5398525119d11e11e9836b2ee7d23f6159ad87d460408201527f01485efa927f2ad41bff567eec88f32fb0a0f706588b4e41a8d587d008b7f8756060820152867f30644e72e131a029b85045b68181585d2833e84879b9709143e1f593f0000001036080820152604080820160606040840160075afa821691506040835160808360065afa82169150816112c557600080fd5b505060008281526006602052604090206112e190826002611d0e565b5060008281526005602052604080822081518083019092529091600290835b8282101561134657604080518082019182905290600284810287019182845b81548152602001906001019080831161131f57505050505081526020019060010190611300565b5050505090506001604051825151815260208351015160208201527f077da99d806abd13c9f15ece5398525119d11e11e9836b2ee7d23f6159ad87d460408201527f01485efa927f2ad41bff567eec88f32fb0a0f706588b4e41a8d587d008b7f8756060820152867f30644e72e131a029b85045b68181585d2833e84879b9709143e1f593f0000001036080820152604080820160606040840160075afa821691506040835160808360065afa821691508161140157600080fd5b505060008090506000856040516020018082600260200280838360005b8381101561143657818101518382015260200161141e565b5050505090500191505060405160208183030381529060405280519060200120905060008090505b60085481101561149857816008828154811061147657fe5b906000526020600020015414156114905760019250611498565b60010161145e565b5081156114e2576040805162461bcd60e51b81526020600482015260136024820152724e6f6e636520616c7265616479207365656e2160681b604482015290519081900360640190fd5b6002546001600160a01b0316636e1a999e846000602002015185600160200201518b8b6009548c338d6040518963ffffffff1660e01b81526004018089600260200280838360005b8381101561154257818101518382015260200161152a565b5050505090500188600260200280838360005b8381101561156d578181015183820152602001611555565b5050505090500187600260200280838360005b83811015611598578181015183820152602001611580565b5050505090500186815260200185815260200184600260200280838360005b838110156115cf5781810151838201526020016115b7565b50505050905001836001600160a01b03166001600160a01b0316815260200180602001828103825283818151815260200191508051906020019080838360005b8381101561162757818101518382015260200161160f565b50505050905090810190601f1680156116545780820380516001836020036101000a031916815260200191505b50995050505050505050505060206040518083038186803b15801561167857600080fd5b505afa15801561168c573d6000803e3d6000fd5b505050506040513d60208110156116a257600080fd5b50516116f5576040805162461bcd60e51b815260206004820152601f60248201527f4275726e2070726f6f6620766572696669636174696f6e206661696c65642100604482015290519081900360640190fd5b600080546040805163a9059cbb60e01b8152336004820152602481018b905290516001600160a01b039092169263a9059cbb926044808401936020939083900390910190829087803b15801561174a57600080fd5b505af115801561175e573d6000803e3d6000fd5b505050506040513d602081101561177457600080fd5b50516117b15760405162461bcd60e51b8152600401808060200182810382526035815260200180611e996035913960400191505060405180910390fd5b60048054979097039096555050600880546001810182556000919091527ff3f7a9fe364faab93b216da50a3214154f22a0a2b415b23a84c8169e8b636ee3019390935550505050565b604080518381526020808502820101909152606090839081801561183857816020015b611825611d55565b81526020019060019003908161181d5790505b50915060005b81811015611a3957600086868381811061185457fe5b90506040020160405160200180826002602002808284376040805191909301818103601f19018252808452815160209283012060008181526005909352848320828601909552965094509192506002919050835b828210156118ee57604080518082019182905290600284810287019182845b8154815260200190600101908083116118c7575050505050815260200190600101906118a8565b505050508483815181106118fe57fe5b60200260200101819052508460076000838152602001908152602001600020541015611a305761192c611ce1565b60008281526006602052604080822081518083019092529091600290835b8282101561199057604080518082019182905290600284810287019182845b8154815260200190600101908083116119695750505050508152602001906001019061194a565b50506040805184515181528451602090810151818301528881028b0181018051515183850152805151909101516060830152515194955060019490935090915060808360065afa6020848101805151845251810151838201528681028901810180518201515160408086019190915281518301518301516060860152905190910151939091169260808360065afa8216915081611a2c57600080fd5b5050505b5060010161183e565b50509392505050565b60006003544281611a4f57fe5b6000848152600760205260409020549190049150811115611c6657611a72611d82565b60408051600085815260056020528281206080830184529192839290830191600290835b82821015611adc57604080518082019182905290600284810287019182845b815481526020019060010190808311611ab557505050505081526020019060010190611a96565b5050509082525060008581526006602090815260408083208151808301909252919093019291600290835b82821015611b4d57604080518082019182905290600284810287019182845b815481526020019060010190808311611b2657505050505081526020019060010190611b07565b50505050815250905060016040518251515181526020835151015160208201526020830151515160408201526020808401515101516060820152604083515160808360065afa82169150602083510151518152602080845101510151602082015260208084015101515160408201526020806020850151015101516060820152604060208451015160808360065afa8216915081611bea57600080fd5b505080516000848152600560205260409020611c07916002611d0e565b50604080516080810182526000818301818152606083018290528252825180840184528181526020818101839052808401919091528682526006905291909120611c52916002611d0e565b505060008281526007602052604090208190555b806009541015611c81576009819055611c8160086000611db0565b5050565b60405180604001604052806002906020820280388339509192915050565b8260028101928215611cd1579160200282015b82811115611cd1578251825591602001919060010190611cb6565b50611cdd929150611dd1565b5090565b60405180608001604052806002905b611cf8611c85565b815260200190600190039081611cf05790505090565b600483019183908215611d49579160200282015b82811115611d49578251611d399083906002611ca3565b5091602001919060020190611d22565b50611cdd929150611dee565b60405180608001604052806002905b611d6c611c85565b815260200190600190039081611d645790505090565b6040518061010001604052806002905b611d9a611d55565b815260200190600190039081611d925790505090565b5080546000825590600052602060002090810190611dce9190611dd1565b50565b611deb91905b80821115611cdd5760008155600101611dd7565b90565b611deb91905b80821115611cdd576000611e088282611e11565b50600201611df4565b50600081556001016000905556fe456c6c6970746963206375727665206f7065726174696f6e73206661696c7572652e2042616420706f696e74733f46756e642070757368657320636f6e74726163742070617374206d6178696d756d2076616c75652e5472616e736665722070726f6f6620766572696669636174696f6e206661696c656421546869732073686f756c646e2774206661696c2e2e2e20536f6d657468696e672077656e74207365766572656c792077726f6e672ea265627a7a72305820fb7d92e98fde3329ccfc07eebf3412b233f163f75551950883449b34dd81944b64736f6c634300050a0032",
    "sourcePath": "/home/siddhanjay/softwares/zether/packages/protocol/contracts/ZSC.sol",
    "compiler": {
        "name": "solc",
        "version": "0.5.10+commit.5a6ea5b1"
    },
    "functionHashes": {
        "burn(bytes32[2],uint256,bytes32[2],bytes)": "73663b5f",
        "epochLength()": "57d775f8",
        "fund(bytes32[2],uint256)": "5464befb",
        "simulateAccounts(bytes32[2][],uint256)": "7ea9712f",
        "transfer(bytes32[2][],bytes32[2],bytes32[2][],bytes32[2],bytes)": "5ec7ccfd"
    },
    "gasEstimates": {
        "creation": {
            "codeDepositCost": "1587600",
            "executionCost": "infinite",
            "totalCost": "infinite"
        },
        "external": {
            "burn(bytes32[2],uint256,bytes32[2],bytes)": "infinite",
            "epochLength()": "398",
            "fund(bytes32[2],uint256)": "infinite",
            "simulateAccounts(bytes32[2][],uint256)": "infinite",
            "transfer(bytes32[2][],bytes32[2],bytes32[2][],bytes32[2],bytes)": "infinite"
        },
        "internal": {
            "rollOver(bytes32)": "infinite"
        }
    }
}